{
  "_format": "hh-sol-artifact-1",
  "contractName": "Dygnify",
  "sourceName": "contracts/Dygnify.sol",
  "abi": [
    {
      "inputs": [
        {
          "internalType": "uint256",
          "name": "",
          "type": "uint256"
        }
      ],
      "name": "allInvoices",
      "outputs": [
        {
          "internalType": "bytes32",
          "name": "buyerPAN",
          "type": "bytes32"
        },
        {
          "internalType": "bytes32",
          "name": "sellerPAN",
          "type": "bytes32"
        },
        {
          "internalType": "uint256",
          "name": "invoiceAmount",
          "type": "uint256"
        },
        {
          "internalType": "string",
          "name": "invoiceDate",
          "type": "string"
        },
        {
          "internalType": "bool",
          "name": "paid",
          "type": "bool"
        }
      ],
      "stateMutability": "view",
      "type": "function"
    },
    {
      "inputs": [
        {
          "internalType": "bytes32",
          "name": "",
          "type": "bytes32"
        },
        {
          "internalType": "uint256",
          "name": "",
          "type": "uint256"
        }
      ],
      "name": "buyerInvoices",
      "outputs": [
        {
          "internalType": "bytes32",
          "name": "buyerPAN",
          "type": "bytes32"
        },
        {
          "internalType": "bytes32",
          "name": "sellerPAN",
          "type": "bytes32"
        },
        {
          "internalType": "uint256",
          "name": "invoiceAmount",
          "type": "uint256"
        },
        {
          "internalType": "string",
          "name": "invoiceDate",
          "type": "string"
        },
        {
          "internalType": "bool",
          "name": "paid",
          "type": "bool"
        }
      ],
      "stateMutability": "view",
      "type": "function"
    },
    {
      "inputs": [
        {
          "internalType": "bytes32",
          "name": "buyerPAN",
          "type": "bytes32"
        },
        {
          "internalType": "bytes32",
          "name": "sellerPAN",
          "type": "bytes32"
        },
        {
          "internalType": "uint256",
          "name": "invoiceAmount",
          "type": "uint256"
        },
        {
          "internalType": "string",
          "name": "invoiceDate",
          "type": "string"
        }
      ],
      "name": "createInvoice",
      "outputs": [],
      "stateMutability": "nonpayable",
      "type": "function"
    },
    {
      "inputs": [],
      "name": "getAllInvoices",
      "outputs": [
        {
          "components": [
            {
              "internalType": "bytes32",
              "name": "buyerPAN",
              "type": "bytes32"
            },
            {
              "internalType": "bytes32",
              "name": "sellerPAN",
              "type": "bytes32"
            },
            {
              "internalType": "uint256",
              "name": "invoiceAmount",
              "type": "uint256"
            },
            {
              "internalType": "string",
              "name": "invoiceDate",
              "type": "string"
            },
            {
              "internalType": "bool",
              "name": "paid",
              "type": "bool"
            }
          ],
          "internalType": "struct Dygnify.InvoiceData[]",
          "name": "",
          "type": "tuple[]"
        }
      ],
      "stateMutability": "view",
      "type": "function"
    },
    {
      "inputs": [
        {
          "internalType": "bytes32",
          "name": "buyerPAN",
          "type": "bytes32"
        }
      ],
      "name": "getInvoicesByBuyerPAN",
      "outputs": [
        {
          "components": [
            {
              "internalType": "bytes32",
              "name": "buyerPAN",
              "type": "bytes32"
            },
            {
              "internalType": "bytes32",
              "name": "sellerPAN",
              "type": "bytes32"
            },
            {
              "internalType": "uint256",
              "name": "invoiceAmount",
              "type": "uint256"
            },
            {
              "internalType": "string",
              "name": "invoiceDate",
              "type": "string"
            },
            {
              "internalType": "bool",
              "name": "paid",
              "type": "bool"
            }
          ],
          "internalType": "struct Dygnify.InvoiceData[]",
          "name": "",
          "type": "tuple[]"
        }
      ],
      "stateMutability": "view",
      "type": "function"
    },
    {
      "inputs": [
        {
          "internalType": "bytes32",
          "name": "",
          "type": "bytes32"
        }
      ],
      "name": "invoices",
      "outputs": [
        {
          "internalType": "bytes32",
          "name": "buyerPAN",
          "type": "bytes32"
        },
        {
          "internalType": "bytes32",
          "name": "sellerPAN",
          "type": "bytes32"
        },
        {
          "internalType": "uint256",
          "name": "invoiceAmount",
          "type": "uint256"
        },
        {
          "internalType": "string",
          "name": "invoiceDate",
          "type": "string"
        },
        {
          "internalType": "bool",
          "name": "paid",
          "type": "bool"
        }
      ],
      "stateMutability": "view",
      "type": "function"
    },
    {
      "inputs": [
        {
          "internalType": "bytes32",
          "name": "",
          "type": "bytes32"
        },
        {
          "internalType": "uint256",
          "name": "",
          "type": "uint256"
        }
      ],
      "name": "sellerInvoices",
      "outputs": [
        {
          "internalType": "bytes32",
          "name": "",
          "type": "bytes32"
        }
      ],
      "stateMutability": "view",
      "type": "function"
    },
    {
      "inputs": [
        {
          "internalType": "bytes32",
          "name": "invoiceID",
          "type": "bytes32"
        },
        {
          "internalType": "bool",
          "name": "paid",
          "type": "bool"
        }
      ],
      "name": "updatePaymentStatus",
      "outputs": [],
      "stateMutability": "nonpayable",
      "type": "function"
    }
  ],
  "bytecode": "0x608060405234801561001057600080fd5b506112a8806100206000396000f3fe608060405234801561001057600080fd5b50600436106100885760003560e01c80636a166f6f1161005b5780636a166f6f14610143578063a004603e1461015f578063edad5dac1461018f578063f8a8a076146101ab57610088565b806302c5eebf1461008d57806352add9ad146100c1578063570bdad6146100f15780635eec2f5b1461010f575b600080fd5b6100a760048036038101906100a29190610b73565b6101df565b6040516100b8959493929190610c85565b60405180910390f35b6100db60048036038101906100d69190610cdf565b6102c7565b6040516100e89190610ebb565b60405180910390f35b6100f9610404565b6040516101069190610ebb565b60405180910390f35b61012960048036038101906101249190610edd565b61052e565b60405161013a959493929190610c85565b60405180910390f35b61015d6004803603810190610158919061103f565b610609565b005b61017960048036038101906101749190610b73565b61085c565b60405161018691906110c2565b60405180910390f35b6101a960048036038101906101a49190611109565b61088d565b005b6101c560048036038101906101c09190610cdf565b6108bf565b6040516101d6959493929190610c85565b60405180910390f35b600260205281600052604060002081815481106101fb57600080fd5b90600052602060002090600502016000915091505080600001549080600101549080600201549080600301805461023190611178565b80601f016020809104026020016040519081016040528092919081815260200182805461025d90611178565b80156102aa5780601f1061027f576101008083540402835291602001916102aa565b820191906000526020600020905b81548152906001019060200180831161028d57829003601f168201915b5050505050908060040160009054906101000a900460ff16905085565b606060026000838152602001908152602001600020805480602002602001604051908101604052809291908181526020016000905b828210156103f957838290600052602060002090600502016040518060a001604052908160008201548152602001600182015481526020016002820154815260200160038201805461034d90611178565b80601f016020809104026020016040519081016040528092919081815260200182805461037990611178565b80156103c65780601f1061039b576101008083540402835291602001916103c6565b820191906000526020600020905b8154815290600101906020018083116103a957829003601f168201915b505050505081526020016004820160009054906101000a900460ff161515151581525050815260200190600101906102fc565b505050509050919050565b60606000805480602002602001604051908101604052809291908181526020016000905b8282101561052557838290600052602060002090600502016040518060a001604052908160008201548152602001600182015481526020016002820154815260200160038201805461047990611178565b80601f01602080910402602001604051908101604052809291908181526020018280546104a590611178565b80156104f25780601f106104c7576101008083540402835291602001916104f2565b820191906000526020600020905b8154815290600101906020018083116104d557829003601f168201915b505050505081526020016004820160009054906101000a900460ff16151515158152505081526020019060010190610428565b50505050905090565b6000818154811061053e57600080fd5b906000526020600020906005020160009150905080600001549080600101549080600201549080600301805461057390611178565b80601f016020809104026020016040519081016040528092919081815260200182805461059f90611178565b80156105ec5780601f106105c1576101008083540402835291602001916105ec565b820191906000526020600020905b8154815290600101906020018083116105cf57829003601f168201915b5050505050908060040160009054906101000a900460ff16905085565b60006106178585858561098a565b90506040518060a00160405280868152602001858152602001848152602001838152602001600015158152506001600083815260200190815260200160002060008201518160000155602082015181600101556040820151816002015560608201518160030190805190602001906106909291906109c3565b5060808201518160040160006101000a81548160ff02191690831515021790555090505060026000868152602001908152602001600020600160008381526020019081526020016000209080600181540180825580915050600190039060005260206000209060050201600090919091909150600082015481600001556001820154816001015560028201548160020155600382018160030190805461073590611178565b610740929190610a49565b506004820160009054906101000a900460ff168160040160006101000a81548160ff0219169083151502179055505050600360008581526020019081526020016000208190806001815401808255809150506001900390600052602060002001600090919091909150556000600160008381526020019081526020016000209080600181540180825580915050600190039060005260206000209060050201600090919091909150600082015481600001556001820154816001015560028201548160020155600382018160030190805461081a90611178565b610825929190610a49565b506004820160009054906101000a900460ff168160040160006101000a81548160ff02191690831515021790555050505050505050565b6003602052816000526040600020818154811061087857600080fd5b90600052602060002001600091509150505481565b806001600084815260200190815260200160002060040160006101000a81548160ff0219169083151502179055505050565b60016020528060005260406000206000915090508060000154908060010154908060020154908060030180546108f490611178565b80601f016020809104026020016040519081016040528092919081815260200182805461092090611178565b801561096d5780601f106109425761010080835404028352916020019161096d565b820191906000526020600020905b81548152906001019060200180831161095057829003601f168201915b5050505050908060040160009054906101000a900460ff16905085565b6000848484846040516020016109a39493929190611228565b604051602081830303815290604052805190602001209050949350505050565b8280546109cf90611178565b90600052602060002090601f0160209004810192826109f15760008555610a38565b82601f10610a0a57805160ff1916838001178555610a38565b82800160010185558215610a38579182015b82811115610a37578251825591602001919060010190610a1c565b5b509050610a459190610ad6565b5090565b828054610a5590611178565b90600052602060002090601f016020900481019282610a775760008555610ac5565b82601f10610a885780548555610ac5565b82800160010185558215610ac557600052602060002091601f016020900482015b82811115610ac4578254825591600101919060010190610aa9565b5b509050610ad29190610ad6565b5090565b5b80821115610aef576000816000905550600101610ad7565b5090565b6000604051905090565b600080fd5b600080fd5b6000819050919050565b610b1a81610b07565b8114610b2557600080fd5b50565b600081359050610b3781610b11565b92915050565b6000819050919050565b610b5081610b3d565b8114610b5b57600080fd5b50565b600081359050610b6d81610b47565b92915050565b60008060408385031215610b8a57610b89610afd565b5b6000610b9885828601610b28565b9250506020610ba985828601610b5e565b9150509250929050565b610bbc81610b07565b82525050565b610bcb81610b3d565b82525050565b600081519050919050565b600082825260208201905092915050565b60005b83811015610c0b578082015181840152602081019050610bf0565b83811115610c1a576000848401525b50505050565b6000601f19601f8301169050919050565b6000610c3c82610bd1565b610c468185610bdc565b9350610c56818560208601610bed565b610c5f81610c20565b840191505092915050565b60008115159050919050565b610c7f81610c6a565b82525050565b600060a082019050610c9a6000830188610bb3565b610ca76020830187610bb3565b610cb46040830186610bc2565b8181036060830152610cc68185610c31565b9050610cd56080830184610c76565b9695505050505050565b600060208284031215610cf557610cf4610afd565b5b6000610d0384828501610b28565b91505092915050565b600081519050919050565b600082825260208201905092915050565b6000819050602082019050919050565b610d4181610b07565b82525050565b610d5081610b3d565b82525050565b600082825260208201905092915050565b6000610d7282610bd1565b610d7c8185610d56565b9350610d8c818560208601610bed565b610d9581610c20565b840191505092915050565b610da981610c6a565b82525050565b600060a083016000830151610dc76000860182610d38565b506020830151610dda6020860182610d38565b506040830151610ded6040860182610d47565b5060608301518482036060860152610e058282610d67565b9150506080830151610e1a6080860182610da0565b508091505092915050565b6000610e318383610daf565b905092915050565b6000602082019050919050565b6000610e5182610d0c565b610e5b8185610d17565b935083602082028501610e6d85610d28565b8060005b85811015610ea95784840389528151610e8a8582610e25565b9450610e9583610e39565b925060208a01995050600181019050610e71565b50829750879550505050505092915050565b60006020820190508181036000830152610ed58184610e46565b905092915050565b600060208284031215610ef357610ef2610afd565b5b6000610f0184828501610b5e565b91505092915050565b600080fd5b600080fd5b7f4e487b7100000000000000000000000000000000000000000000000000000000600052604160045260246000fd5b610f4c82610c20565b810181811067ffffffffffffffff82111715610f6b57610f6a610f14565b5b80604052505050565b6000610f7e610af3565b9050610f8a8282610f43565b919050565b600067ffffffffffffffff821115610faa57610fa9610f14565b5b610fb382610c20565b9050602081019050919050565b82818337600083830152505050565b6000610fe2610fdd84610f8f565b610f74565b905082815260208101848484011115610ffe57610ffd610f0f565b5b611009848285610fc0565b509392505050565b600082601f83011261102657611025610f0a565b5b8135611036848260208601610fcf565b91505092915050565b6000806000806080858703121561105957611058610afd565b5b600061106787828801610b28565b945050602061107887828801610b28565b935050604061108987828801610b5e565b925050606085013567ffffffffffffffff8111156110aa576110a9610b02565b5b6110b687828801611011565b91505092959194509250565b60006020820190506110d76000830184610bb3565b92915050565b6110e681610c6a565b81146110f157600080fd5b50565b600081359050611103816110dd565b92915050565b600080604083850312156111205761111f610afd565b5b600061112e85828601610b28565b925050602061113f858286016110f4565b9150509250929050565b7f4e487b7100000000000000000000000000000000000000000000000000000000600052602260045260246000fd5b6000600282049050600182168061119057607f821691505b602082108114156111a4576111a3611149565b5b50919050565b6000819050919050565b6111c56111c082610b07565b6111aa565b82525050565b6000819050919050565b6111e66111e182610b3d565b6111cb565b82525050565b600081905092915050565b600061120282610bd1565b61120c81856111ec565b935061121c818560208601610bed565b80840191505092915050565b600061123482876111b4565b60208201915061124482866111b4565b60208201915061125482856111d5565b60208201915061126482846111f7565b91508190509594505050505056fea264697066735822122050300440804d1aada63eebabd338ba07322075b86a2ee9b5fad2f243ebc6c5b064736f6c63430008080033",
  "linkReferences": {},
  "deployedLinkReferences": {}
}